:020000040800F2
:10000000301A0020CD83000875040008770400082A
:100010007B0400087F04000883040008000000003F
:10002000000000000000000000000000870400083D
:100030008904000800000000E38300088B04000826
:10004000E7830008E7830008E7830008E7830008E8
:10005000E7830008E7830008057B0008C57A0008ED
:10006000E7830008E7830008E7830008E7830008C8
:10007000E7830008E783000887690008E783000832
:10008000E783000895680008E7830008E783000815
:10009000E7830008E7830008E7830008E783000898
:1000A000E7830008E7830008E7830008E783000888
:1000B000E7830008E1770008E7830008E78300088A
:1000C000E7830008E7830008E7830008E783000868
:1000D000E7830008396D0008DD6E0008D77000085E
:1000E000E7830008E7830008E7830008E783000848
:1000F000E7830008E7830008E7830008E783000838
:10010000E7830008E7830008E7830008E783000827
:10011000E7830008E7830008E7830008E783000817
:10012000E7830008E7830008E7830008E783000807
:10013000E7830008E7830008E7830008E7830008F7
:10014000E7830008E7830008E7830008E7830008E7
:10015000E7830008836A0008A1670008A17200080D
:10016000E7830008E7830008E7830008E7830008C7
:10017000E7830008E7830008E7830008E7830008B7
:10018000E7830008E783000800F002F800F072F847
:100190000AA090E8000C82448344AAF10107DA45E2
:1001A00001D100F067F8AFF2090EBAE80F0013F0C2
:1001B000010F18BFFB1A43F001031847900A010012
:1001C000B00A01000A444FF0000C10F8013B13F094
:1001D000070408BF10F8014B1D1108BF10F8015BA0
:1001E000641E05D010F8016B641E01F8016BF9D193
:1001F00013F0080F1EBF10F8014BAD1C0C1B09D1EA
:100200006D1E58BF01F801CBFAD505E014F8016B5B
:1002100001F8016B6D1EF9D59142D6D370470000ED
:100220000023002400250026103A28BF78C1FBD8FF
:10023000520728BF30C148BF0B60704766290CF0D9
:10024000358364290BF00E8163290BF01E85732919
:100250000BF02385002070471FB50CF022FB0BF03C
:1002600047FD0400002000210CF08EFAE0601FBD65
:1002700010B510BD0BF038FE1146FFF7EDFF00F092
:1002800009F80BF056FE03B4FFF7F2FF03BC0BF0C6
:1002900099FE0000002400BF06F0D8F94FF4A060DA
:1002A00008F0B4F800F03EFD00F096FD04F0CFFC3D
:1002B0003AA278216E2004F0E3FD3EA28C216E204C
:1002C00004F0DEFD4FF4FA7006F018FC4FF4FA70FB
:1002D00006F014FC04F0E5FA3DA20021084604F003
:1002E000CFFD07F08DFC40A200214FF48C7004F08C
:1002F000C7FD00F0D5FD3DA21421002004F0C0FD93
:1003000000F043FE01280ED107F062FB00F0BAFEB8
:1003100035A214214FF48C7004F0B2FD02213A484A
:1003200009F0C2F905E039A214214FF48C7004F0F1
:10033000A7FD38A22821002004F0A2FD002405E03A
:1003400007F001FD042006F0D9FB641CB4F5FA7F28
:10035000F6D302E0052006F0D1FB07F0A0FE01284D
:10036000F8D1022000F06EFD34A27821002004F0C4
:1003700087FD39A28C21002004F082FD4FF4FA7031
:1003800006F0BCFB4FF4FA7006F0B8FB01203849C8
:10039000087007F063F900BFFEE700004465736969
:1003A000676E65642062792046656E67205A6970C1
:1003B000656E670057616974696E6720546F2053DA
:1003C000746172742055702E2E2E2E2E2E00000079
:1003D00041444320496E697469616C7A696E672E85
:1003E0002E2E2E2E2E0000004F4B00004E52463275
:1003F000344C303120496E697469616C7A696E677A
:100400002E2E2E2E2E2E0000000002404552524F5E
:1004100052210000416371756972696E67205468EA
:10042000726F74746C65204F666673657420566FC6
:100430006C746167652E2E2E2E2E2E00416C6C2062
:100440004D6F64756C657320697320696E6974699A
:10045000616C7A6564202100526561647920746F53
:100460002073746172742075702E2E2E2E2E2E0025
:1004700001000020704700BFFEE700BFFEE700BF9D
:10048000FEE700BFFEE770477047704770B5002574
:1004900000266D1C052006F031FBFA2D17DA00242A
:1004A00006E0FE48005DB52800D103E0601C84B280
:1004B000AC42F6DB00BFAC4201D1022608E0F749AE
:1004C000E01C085C08B9032602E0002600E00126D3
:1004D000304670BD70B50446002515701D700020B3
:1004E00009E01578265C354415701D78167835447A
:1004F0001D70451CA8B28842F3DB70BD70B505467F
:10050000E74C46F2B5202080062060801420A080B1
:100510000120A0710020E07120814FF40D60C4F82B
:100520000A00C4F80E5007206082A0820020E082FA
:10053000208304F11B035A1E1821A01CFFF7CAFFD9
:100540001C21204606F00CFDC82006F0D7FA2846EC
:1005500006F049FDFFF79AFF70BD10B54FF4E1308A
:10056000FFF7CCFF10BD0246134610E010782A2892
:1005700005D01078202802DB10787A2801DDFF20D2
:10058000704710782C2801D1481EC1B2521C002996
:10059000ECD1D01AC0B2F3E710B50246012000E05A
:1005A00050430B1EA1F10104E1B2F9D110BD2DE9B8
:1005B000F34F81B007463C460020009083468146B9
:1005C0000026804628E020782D2802D148F0020835
:1005D000641C20782C2802D020782A2800D11CE026
:1005E00020782E2803D148F00108641C09E0207807
:1005F000392802DC2078302803DA4FF00009002681
:100600000BE008F0010010B1701CC6B203E009F164
:10061000010000F0FF09641CD5E700BF08F00200EC
:1006200000B17F1C00250EE0A9F10100401BC1B202
:100630000A20FFF7B1FF795D3039009A00FB0120F5
:100640000090681CC5B24D45EEDB052E00DD052689
:100650000298067000250EE0701E401BC1B20A20F1
:10066000FFF79AFF09F101012944795C303900FB59
:1006700001BB681CC5B2B542EEDB31460A20FFF76C
:100680008BFF009901FB00BA08F0020008B1CAF123
:10069000000A5046BDE8FE8F2DE9FC5F07468A46FA
:1006A0004FF00008CDF804A07EA101980AF0B2FF37
:1006B0000646F079303800F0FF0B03213046FFF793
:1006C00052FF0546FF2D04D070196946FFF76FFFF2
:1006D00038704FF000096CE072A101980AF09AFF9F
:1006E000064600245CE0042000EB8400C1B23046E2
:1006F000FFF739FF0546FF2D09D070196946FFF74E
:1007000056FFC1B208EB8802781C815400E049E032
:10071000052000EB8400C1B23046FFF724FF0546F8
:10072000FF2D0AD070196946FFF741FFC1B208EBEF
:100730008802781C1044417000E033E0062000EB92
:100740008400C1B23046FFF70EFF0546FF2D0AD0E8
:1007500070196946FFF72BFF81B208EB8802781CFD
:100760001044418000E01DE0072000EB8400C1B28E
:100770003046FFF7F8FE0546FF2D0AD0701969468E
:10078000FFF715FFC1B208EB8802781C1044017115
:1007900000E007E008F1010000F0FF08601CC4B2AF
:1007A000042CA0DB00BF701C019009F1010000F0D7
:1007B000FF09D94590DBBDE8FC9FF8B505460F461B
:1007C0003AA138460AF026FF064602213046FFF7D6
:1007D000CAFE0446FF2C05D030196946FFF7E7FE34
:1007E000C5F8490004213046FFF7BDFE0446FF2C42
:1007F00004D030196946FFF7DAFE686406213046F6
:10080000FFF7B1FE0446FF2C05D030196946FFF70B
:10081000CEFE85F84E0007213046FFF7A4FE0446C1
:10082000FF2C05D030196946FFF7C1FE85F84F004F
:1008300009213046FFF797FE0446FF2C05D03019FA
:100840006946FFF7B4FEC5F86300F8BD2DE9F8432B
:100850000546884616A140460AF0DCFE06460221FF
:100860003046FFF780FE0446FF2C05D0301969465C
:10087000FFF79DFE85F85C00002722E0F81CC1B25E
:100880003046FFF770FE0446FF2C17D0301969463A
:10089000FFF78DFEC1B205F150000DE0BC0E002047
:1008A000BC0D0020244750475356000047474100E5
:1008B0002447504753410000C15500E003E0781C35
:1008C000C7B20C2FDADB00BF0F213046FFF74BFE1B
:1008D0000446FF2C05D030196946FFF768FEA5F8DD
:1008E0005D0010213046FFF73EFE0446FF2C05D088
:1008F00030196946FFF75BFEA5F85F00112130460D
:10090000FFF731FE0446FF2C05D030196946FFF78A
:100910004EFEA5F86100BDE8F8832DE9F0432DED0A
:10092000028B81B004468846F9A140460AF072FE67
:10093000074601213846FFF716FE0546FF2D23D056
:1009400078196946FFF733FE81469DF800100A20AA
:10095000FFF722FEB9FBF0F642F21070B6FBF0F0A2
:10096000C1B2412001556420B6FBF0F06421B0FB18
:10097000F1F201FB1201422001556420B6FBF0F1B7
:1009800000FB11614320015503213846FFF7EBFDC1
:100990000546FF2D40D078196946FFF708FE064648
:1009A0009DF80000801CC1B20A20FFF7F5FDB6FBE0
:1009B000F0F060649DF80000801CC1B20A20FFF7CF
:1009C000EBFDB6FBF0F100FB116000EE100AB8EE93
:1009D000408A05210A20FFF7DFFD616C484300EEE5
:1009E000100AF8EE400A9DF80000C0F10500C1B2FF
:1009F0000A20FFF7D1FD00EE100AB8EE400A20EE03
:100A0000080A9FEDC51AC0EE011A30EEA10ABCEE2D
:100A1000C00A10EE100A606404213846FFF7A3FDF7
:100A20000546FF2D02D0785D84F848000521384640
:100A3000FFF799FD0546FF2D44D078196946FFF769
:100A4000B6FD06469DF80000801CC1B20A20FFF7E3
:100A5000A3FDB6FBF0F044F8490F9DF80000801CA0
:100A6000C1B20A20FFF798FDB6FBF0F100FB116060
:100A700000EE100AB8EE400AB0EE408A05210A20C6
:100A8000FFF78AFD2168484300EE100AF8EE400A9D
:100A90009DF80000C0F10500C1B20A20FFF77CFDFF
:100AA00000EE100AB8EE400A20EE080A9FED9A1AEE
:100AB000C0EE011A30EEA10ABCEEC00A10EE100A18
:100AC00044F8490906213846FFF74DFD0546FF2D3C
:100AD00002D0785D84F84D0009213846FFF743FDC8
:100AE0000546FF2D1ED078196946FFF760FD0646C2
:100AF00042F21070B6FBF0F0C1B240200155642004
:100B0000B6FBF0F06421B0FBF1F201FB12013F20D3
:100B100001556420B6FBF0F100FB116000F5FA60AE
:100B2000A4F83D0001B0BDEC028BBDE8F083F8B540
:100B300004460F4679A138460AF06CFD06460121AD
:100B40003046FFF710FD0546FF2D05D070196946A8
:100B5000FFF72DFDA4F8690007213046FFF703FDDC
:100B60000546FF2D16D070196946FFF720FDA4F841
:100B700067009DF8000003280CDA9DF80000C0F122
:100B80000300C1B20A20FFF707FDB4F8671048431D
:100B9000A4F86700F8BD70B504460D462946204606
:100BA000FFF77AFD29462046FFF707FE2946204633
:100BB000FFF74CFE29462046FFF7AFFE29462046A8
:100BC000FFF7B5FF70BD70B5554C46F2B5202080DB
:100BD00040F6061060800D20A0800020C4F80600BA
:100BE0004FF6FF70C4F80A000020C4F80E0004207D
:100BF000A07404F114035A1E1121A01CFFF76AFC13
:100C00001521204606F0D6F8002505E0FFF73EFC4A
:100C100000B903E0681CC5B2062DF7DB00BF062D46
:100C200001D1012070BD0020FCE770B505460E46DD
:100C30003B4C46F2B52020804FF483706080082042
:100C4000A080F020A071E571012020726672A07270
:100C5000E0722073607304F10F035A1E0C21A01C74
:100C6000FFF738FC1021204606F0A4F8FFF70EFC31
:100C700070BD2DE9F04105460E461746284C46F258
:100C8000B520208040F2067060801420A080C4F857
:100C90000650C4F80A60A7730020E07320746074E3
:100CA0004FF44D7060820020A082C4F8160004F159
:100CB0001B035A1E1821A01CFFF70CFC1C21204608
:100CC00006F078F8FFF7E2FBBDE8F08170B5054665
:100CD0000E46134CC82D01DA012070BD46F2B52036
:100CE000208040F6060060800620A080E58001207C
:100CF0002081668104F10D035A1E0A21A01CFFF712
:100D0000E9FB0E21064806F055F8FFF7BFFBE4E7C4
:100D10004750524D430000000000704256544700B7
:100D2000BC0D00201CB507F0B7FA0121084608F0F9
:100D3000DBFE0121042008F0D7FE022000900120F4
:100D40008DF8040000208DF8060001208DF80700C2
:100D500003208DF8050069461D4808F027FC102087
:100D6000009001208DF804008DF806008DF8070032
:100D700003208DF805006946164808F017FC02218B
:100D8000134808F08FFC1021124808F08BFC1CBDA2
:100D900070B50446002517E002210D4808F084FCD8
:100DA00002210B4808F080FCC82005F0A7FE0221B4
:100DB000074808F077FC0221054808F073FCC820BA
:100DC00005F09CFE681CC5B2A542E5DB70BD0000C5
:100DD00000000240000802401CB50121042008F078
:100DE00083FE4FF40050009001208DF80400002095
:100DF0008DF8060001208DF8070003208DF805000E
:100E00006946264808F0D2FB4FF40051234808F009
:100E100049FC1CBD002102E000BF4A1C91B2814286
:100E2000FADB704710B504464FF400511B4808F038
:100E30003BFC204605F062FE4FF40051174808F0D5
:100E400031FC10BD70B50446002507E06420FFF7B3
:100E5000E9FF642005F052FE681CC5B2A542F5DB2F
:100E600070BD2DE9F04104460D461646002711E0FD
:100E70004FF40051094808F017FC284605F03EFEE3
:100E80004FF40051054808F00DFC304605F036FEE1
:100E9000781CC7B2A742EBDBBDE8F0810008024036
:100EA0001CB5642005F02AFE0121022008F01CFE7A
:100EB0004020009001208DF8040003208DF80500EB
:100EC00001208DF8070000208DF806006946C24811
:100ED00008F06CFB8021C04808F0E6FB8020009001
:100EE00001208DF8040000208DF8060002208DF806
:100EF00005006946B84808F059FB8021B64808F05B
:100F0000D1FB06F0EEFC8021B34808F0CBFB1CBD02
:100F10002DE9F04107460C4615468021AE4808F001
:100F2000C3FB384606F0B6FC8046002606E00020EB
:100F300006F0B0FC2070641C701CC6B2AE42F6DB3A
:100F40008021A54808F0AEFB4046BDE8F0812DE9C0
:100F5000F04107460C46154680219F4808F0A4FB47
:100F6000384606F097FC8046002605E0207806F01B
:100F700091FC641C701CC6B2AE42F7DB802196481F
:100F800008F090FB4046BDE8F0811FB593A103C96E
:100F9000CDE90201052202A93020FFF7D8FF052282
:100FA00069461020FFF7B4FF002408E01DF8040094
:100FB00002A9095D884200D003E0601CC4B2052C80
:100FC000F4DB00BF052C02D0002004B010BD0120CE
:100FD000FBE770B505460C4680217F4808F064FBAE
:100FE000284606F057FC0646204606F053FC8021B2
:100FF000794808F057FB304670BD70B50446802133
:10100000754808F051FB204606F044FC002006F02D
:1010100041FC05468021704808F044FB284670BD1D
:1010200010B580216C4808F03FFB0F212020FFF70E
:10103000D0FF01212120FFF7CCFF01212220FFF763
:10104000C8FF03212320FFF7C4FF052265492A209A
:10105000FFF77DFF01212520FFF7BBFF2621084672
:10106000FFF7B7FF01213C20FFF7B3FF06213D202A
:10107000FFF7AFFF052005F041FD4021564808F07D
:1010800011FB10BD10B58021534808F00DFB0E2157
:101090002020FFF79EFF01212220FFF79AFF032166
:1010A0002320FFF796FF05224F493020FFF74FFF1F
:1010B00005224C492A20FFF74AFF5A212420FFF736
:1010C00088FF01212520FFF784FF26210846FFF72E
:1010D00080FF01213C20FFF77CFF01212120FFF749
:1010E00078FF06213D20FFF774FF0A2005F006FD7A
:1010F00010BD10B58021384808F0D6FA0021E12053
:10110000FFF767FF10BD10B58021334808F0CCFA17
:101110001720FFF772FF0446204610BD70B5044645
:101120000D4680212C4808F0BFFAFFF7ECFF064679
:1011300006F0200008B1FFF7DCFF2A462146A02078
:10114000FFF705FF4021244808F0ACFA002070BDED
:1011500010B58021204808F0A7FA0021E220FFF70F
:1011600038FF10BD10B580211B4808F09DFA0720FC
:10117000FFF743FF04464021174808F093FA204642
:1011800010BD70B505460C461646052C01DDFF2046
:1011900070BD04F1A801C8B232462946FFF7D7FE58
:1011A0000120F5E710B56020FFF727FF10BD10B54F
:1011B0000446FFF7F7FFA070A078202803DDFFF7B3
:1011C000C7FF002010BDA27804F124016120FFF7C1
:1011D0009FFE0120F6E7000000040240AABBCCDD20
:1011E000FF000000B5C80008B0C800081CB5012108
:1011F000022008F079FC0121042008F075FC01218F
:10120000102008F071FC2F20009000208DF80400C1
:1012100003208DF8050000208DF80700694652482C
:1012200008F0C4F9072000906946504808F0BEF95C
:101230006020009069464E4808F0B8F91CBD10B512
:1012400004460121484808F013FA28B901206070CB
:101250006088401C608002E0002060706080042193
:10126000414808F005FA28B901202071E088401CA7
:10127000E08002E000202071E08008213A4808F078
:10128000F7F928B9012020726089401C608102E0D2
:101290000020207260810221334808F0E9F928B962
:1012A00001202073E089401CE08102E000202073CF
:1012B000E08140212E4808F0DBF930B9012084F8A4
:1012C0002000608C401C608403E0002084F8200033
:1012D00060840221254808F0CBF928B90120207448
:1012E000608A401C608202E000202074608220211D
:1012F0001D4808F0BDF928B901202075E08A401C7E
:10130000E08202E000202075E0820421174808F006
:10131000AFF928B901202076608B401C608302E081
:101320000020207660830121104808F0A1F928B937
:1013300001202077E08B401CE08302E00020207732
:10134000E08320210A4808F093F938B9012004F815
:10135000240F6078401C6070243C04E0002084F876
:10136000240084F8250010BD00080240000402405B
:101370000010024070B504460D4606F03CF82046C9
:1013800006F0DCF806F073F8284606F0D7F806F009
:101390006EF806F030F8611CC8B206F0CFF806F01F
:1013A00066F8002006F0FDF8064606F042F83046E2
:1013B00070BD10B57521D020FFF7DCFF0446712CFD
:1013C00001D0002010BD00211820FFF7D3FF0446F4
:1013D000482C01D00020F5E70120F3E770B5064660
:1013E0000C46154606F007F8304606F0A7F806F05A
:1013F0003EF8204606F0A2F806F039F8284606F036
:101400009DF806F034F806F014F870BD10B502220D
:101410003721D020FFF7E2FFFFF7CBFF044624B3CC
:1014200004221921D020FFF7D9FF02221A21D0204F
:10143000FFF7D4FF1B221146D020FFF7CFFF082271
:101440001C21D020FFF7CAFF07221D21D020FFF763
:10145000C5FF82223721D020FFF7C0FF112238219B
:10146000D020FFF7BBFF012010BD0020FCE710B526
:101470003A21D020FFF77EFF0446204610BD70B50C
:1014800004463C21D020FFF775FF05463B21D020C4
:10149000FFF770FF45EA002000B220803E21D020F7
:1014A000FFF768FF05463D21D020FFF763FF45EABF
:1014B000002000B260804021D020FFF75BFF05468E
:1014C0003F21D020FFF756FF45EA002000B2A08060
:1014D0004421D020FFF74EFF05464321D020FFF7DF
:1014E00049FF45EA002000B220814621D020FFF7C5
:1014F00041FF05464521D020FFF73CFF45EA00208B
:1015000000B260814821D020FFF734FF0546472113
:10151000D020FFF72FFF45EA002000B2A081032171
:101520001820FFF727FF054604211820FFF722FFA8
:1015300045EA002000B2E08105211820FFF71AFFDC
:10154000054606211820FFF715FF45EA002000B2E6
:10155000208207211820FFF70DFF054608211820DB
:10156000FFF708FF45EA002000B2608270BD2DE958
:10157000F04107460E461546984605F03CFF3846B2
:1015800005F0DCFF05F073FF304605F0D7FF05F0EE
:101590006EFF05F030FF791CC8B205F0CFFF05F0F3
:1015A00066FF002405E0012005F0FBFF2855601CC4
:1015B000C4B2A8F10100A042F5DC002005F0F1FF63
:1015C000285505F036FFBDE8F081000010B52DED7F
:1015D000028B0420FE4908809620FE490880FF20E7
:1015E00003F0DBF9FC4890ED000A10EE101A0846F3
:1015F0000BF0E6F841EC180B53EC182BF7A1F94867
:1016000009F0CCFEF24802880088401CF04B18809C
:1016100002EB82004FF6FF7202EA8001F14AED48C8
:10162000008803F02DFCF04890ED000A10EE101A2F
:1016300008460BF0C5F841EC180B53EC182BE7A14A
:10164000E84809F0ABFEE24802880088401CE04B05
:10165000188002EB82004FF6FF7202EA8001E14A35
:10166000DC48008803F00CFCE04890ED000A10EE26
:10167000101A08460BF0A4F841EC180B53EC182B89
:10168000D6A1D84809F08AFED14802880088401CBB
:10169000CF4B188002EB82004FF6FF7202EA800106
:1016A000D04ACC48008803F0EBFBD14890ED000A0B
:1016B00010EE101A08460BF083F841EC180B53ECAF
:1016C000182BC6A1C74809F069FEC14802880088E6
:1016D000401CBF4B188002EB82004FF6FF7202EAFB
:1016E0008001C04ABB48008803F0CAFB0420B84907
:1016F0000880F020B7490880B74890ED010A10EE45
:10170000101A08460BF05CF841EC180B53EC182B40
:10171000B2A1B44809F042FEAD4802880088401CDE
:10172000AB4B188002EB82004FF6FF7202EA800199
:10173000AC4AA848008803F0A3FBAB4890ED010A2F
:1017400010EE101A08460BF03BF841EC180B53EC66
:10175000182BA2A1A34809F021FE9D480288008809
:10176000401C9B4B188002EB82004FF6FF7202EA8E
:1017700080019C4A9748008803F082FB9B4890EDCB
:10178000010A10EE101A08460BF01AF841EC180B7B
:1017900053EC182B91A1934809F000FE8C48028865
:1017A0000088401C8A4B188002EB82004FF6FF72C3
:1017B00002EA80018B4A8748008803F061FB8C486D
:1017C00090ED010A10EE101A08460AF0F9FF41ECFC
:1017D000180B53EC182B81A1824809F0DFFD7C48DF
:1017E00002880088401C7A4B188002EB82004FF67A
:1017F000FF7202EA80017B4A7648008803F040FBD2
:101800000420734908804FF4A5707249088072481B
:1018100090ED020A10EE101A08460AF0D1FF41ECD2
:10182000180B53EC182B6DA16E4809F0B7FD6848F2
:1018300002880088401C664B188002EB82004FF63D
:10184000FF7202EA8001674A6248008803F018FBD1
:10185000654890ED020A10EE101A08460AF0B0FF33
:1018600041EC180B53EC182B5CA15E4809F096FD77
:10187000574802880088401C554B188002EB8200B4
:101880004FF6FF7202EA8001564A5248008803F080
:10189000F7FA564890ED020A10EE101A08460AF0C0
:1018A0008FFF41EC180B53EC182B4CA14D4809F05D
:1018B00075FD474802880088401C454B188002EBA4
:1018C00082004FF6FF7202EA8001464A41480088D2
:1018D00003F0D6FA464890ED020A10EE101A0846B8
:1018E0000AF06EFF41EC180B53EC182B3BA13D485E
:1018F00009F054FD364802880088401C344B18809B
:1019000002EB82004FF6FF7202EA8001354A31484D
:10191000008803F0B5FA08202D49088096202D494B
:1019200008804FF47F0003F038F8324890ED000A49
:1019300010EE101A08460AF043FF41EC180B53EC66
:10194000182B26A1274809F029FD21480288008884
:10195000401C1F4B188002EB82004FF6FF7202EA18
:101960008001204A1B48008803F08AFA224890ED43
:10197000000A10EE101A08460AF022FF41EC180B7C
:1019800053EC182B15A1174809F008FD10480288E0
:101990000088401C0E4B188002EB82004FF6FF724D
:1019A00002EA80010F4A0B48008803F069FA1348E5
:1019B00090ED000A10EE101A08460AF001FF41EC03
:1019C000180B53EC182B05A1064809F0E7FC17E0AB
:1019D0002600002028000020100A002025372E3382
:1019E0006600000098080020E8090020380A00205E
:1019F000D80A0020880A0020600A0020B00A0020CF
:101A0000FE4802880088401CFC4B188002EB8200D4
:101A10004FF6FF7202EA8001F94AFA48008803F0A3
:101A20002FFAF94890ED000A10EE101A08460AF055
:101A3000C7FE41EC180B53EC182BAFF26001F048D5
:101A400009F0ACFCED4802880088401CEB4B188084
:101A500002EB82004FF6FF7202EA8001E84AE94891
:101A6000008803F00DFA0820E4490880F020E549D9
:101A70000880E64890ED010A10EE101A08460AF0B8
:101A80009FFE41EC180B53EC182BAFF2B001DC4871
:101A900009F084FCD94802880088401CD74B188084
:101AA00002EB82004FF6FF7202EA8001D44AD54869
:101AB000008803F0E5F9D64890ED010A10EE101AFF
:101AC00008460AF07DFE41EC180B53EC182BAFF2E0
:101AD000F401CB4809F062FCC84802880088401C29
:101AE000C64B188002EB82004FF6FF7202EA8001BB
:101AF000C34AC448008803F0C3F9C64890ED010A00
:101B000010EE101A08460AF05BFE41EC180B53EC7D
:101B1000182BAFF23811BA4809F040FCB7480288D8
:101B20000088401CB54B188002EB82004FF6FF7214
:101B300002EA8001B24AB348008803F0A1F9B24832
:101B400090ED010A10EE101A08460AF039FE41EC39
:101B5000180B53EC182BAFF27C11A94809F01EFCAE
:101B6000A64802880088401CA44B188002EB820023
:101B70004FF6FF7202EA8001A14AA248008803F0F2
:101B80007FF908209D4908804FF4A5709D49088081
:101B90009E4890ED020A10EE101A08460AF010FE58
:101BA00041EC180B53EC182BAFF2D011944809F00C
:101BB000F5FB924802880088401C904B188002EB8D
:101BC00082004FF6FF7202EA80018D4A8D4800883C
:101BD00003F056F98E4890ED020A10EE101A0846EE
:101BE0000AF0EEFD41EC180B53EC182BAFF2142168
:101BF000834809F0D3FB814802880088401C7F4B52
:101C0000188002EB82004FF6FF7202EA80017C4AE4
:101C10007C48008803F034F97E4890ED020A10EE0B
:101C2000101A08460AF0CCFD41EC180B53EC182BA7
:101C3000AFF25821724809F0B1FB70480288008861
:101C4000401C6E4B188002EB82004FF6FF7202EAD6
:101C500080016B4A6B48008803F012F96A4890EDE6
:101C6000020A10EE101A08460AF0AAFD41EC180B01
:101C700053EC182BAFF29C21614809F08FFB5F48B1
:101C800002880088401C5D4B188002EB82004FF6F2
:101C9000FF7202EA80015A4A5A48008803F0F0F8BD
:101CA000BDEC028B10BD10B504465B480088401C9B
:101CB000594908806FF07F4002F06FFE5648008857
:101CC000042835DD30225549A1F1300009F0B4FC7B
:101CD000302252493031514809F0AEFC30224F4990
:101CE0006031A1F1300009F0A7FC23464A48028880
:101CF0004BA14A48603009F051FB484A303AF02184
:101D0000002003F0BDF8454A4FF48271002003F033
:101D1000B7F8424A30324FF48C71002003F0B0F82B
:101D20003E4A60324FF49671002003F0A9F823E098
:101D300039490988491E01EB4101384A303A02EB22
:101D40000110234634490A8835A109F027FB32489F
:101D50000088401E00EB4000304B303B03EB00128C
:101D60002D4800880B3000EB80004FF6FF7303EA2C
:101D70008001002003F084F810BD2DE9F0472DED1F
:101D8000028B05460F461446F0EE408A1E46DDE9FA
:101D90000A8900EE104AB8EE400A28EE800AB0EE3A
:101DA000408AB5EEC08AF1EE10FA03DB304602F04D
:101DB000F4FD06E0404602F0F0FDB1EE480AB0EE58
:101DC000408ABCEEC80A10EE100A82B20C233946D3
:101DD000284603F08EFA484602F0DFFD00EE104A76
:101DE000B8EE400A30EE480ABCEEC00A10EE101AF7
:101DF0008AB200EE105AB8EE400A17E02600002022
:101E00009808002028000020000B0020880A0020ED
:101E1000600A0020B00A00202C000020F8080020F2
:101E20002325643A252D34387300000030EE080A6B
:101E3000BCEEC00A10EE101A88B20C23394603F02B
:101E400058FABDEC028BBDE8F0870FB400B52DED5C
:101E5000028B83B0FE480078FE490880FC488088E9
:101E6000FD490880BDF9700040F2DC51884204DD74
:101E70004FF47F0002F091FD03E04FF47F4002F049
:101E80008CFDBDF97020F5A1F54809F087FAF148FD
:101E900002880088401CEF4B188002EB82004FF64E
:101EA000FF7202EA8001EE4AEB48008802F0E8FF88
:101EB0006FF07F4002F071FDBDF97620E7A1E848A0
:101EC00009F06CFAE34802880088401CE14B188056
:101ED00002EB82004FF6FF7202EA8001E04ADE4820
:101EE000008802F0CDFFBDF97420DCA1DC4809F0C8
:101EF00055FAD84802880088401CD64B188002EB5F
:101F000082004FF6FF7202EA8001D54AD24800886B
:101F100002F0B6FFBDF97220D0A1D14809F03EFA17
:101F2000CC4802880088401CCA4B188002EB820013
:101F30004FF6FF7202EA8001C94AC748008802F0E2
:101F40009FFFC3480078C3490880C14880882D306E
:101F5000C1490880BDF97000A0F2DC5000EE100A03
:101F6000B8EEC00ADFEDBF0A80EE201AB0EE418A5B
:101F7000FF200102CDE90010B64802880088401C0D
:101F8000B44B188002EB8200032202EB800081B286
:101F90004FF47F03B0EE480A7822AF480088FFF77D
:101FA000ECFEBDF97600A0F2DC5000EE100AB8EEAF
:101FB000C00ADFEDAC0A80EE201AB0EE418AFF20A5
:101FC0000102CDE90010A34802880088401CA14B03
:101FD000188002EB8200032202EB800081B24FF4F2
:101FE0007F03B0EE480A78229B480088FFF7C5FEC1
:101FF000BDF97400A0F2DC5000EE100AB8EEC00A81
:10200000DFED980A80EE201AB0EE418AFF2001022F
:10201000CDE900108F4802880088401C8D4B188045
:1020200002EB8200032202EB800081B24FF47F03B7
:10203000B0EE480A782288480088FFF79EFEBDF976
:102040007200A0F2DC5000EE100AB8EEC00ADFED1C
:10205000850A80EE201AB0EE418AFF200102CDE908
:1020600000107C4802880088401C7A4B188002EBE4
:102070008200032202EB800081B24FF47F03B0EEB6
:10208000480A782274480088FFF777FE03B0BDEC59
:10209000028B5DF814FB10B52DED020B2DED028BBC
:1020A000714800786B4908806F4880886A490880C9
:1020B0009DED020AF2EE070AB4EEE00AF1EE10FA24
:1020C00004D24FF47F0002F068FC03E06FF07F4021
:1020D00002F063FC9DED020A10EE101A08460AF0A9
:1020E0006FFB41EC180B53EC182B60A15C4809F016
:1020F00055F9584802880088401C564B188002EB5E
:1021000082004FF6FF7202EA8001554A5248008869
:1021100002F0B6FE9DED030A10EE101A08460AF012
:102120004FFB41EC180B53EC182B52A14C4809F013
:1021300035F9484802880088401C464B188002EB5D
:1021400082004FF6FF7202EA8001454A4248008849
:1021500002F096FEBDEC028B1CBD0FB410B54748D3
:1021600000783C490880454880883B4908806FF0EA
:102170007F4002F012FCBDF9082041A1384809F067
:102180000DF9344802880088401C324B188002EB5D
:1021900082004FF6FF7202EA8001314A2E48008821
:1021A00002F06EFEBDF90A2035A12D4809F0F6F8BF
:1021B000284802880088401C264B188002EB8200C9
:1021C0004FF6FF7202EA8001254A2348008802F098
:1021D00057FEBDF90C202AA1214809F0DFF81D485F
:1021E00002880088401C1B4B188002EB82004FF6CF
:1021F000FF7202EA80011A4A1748008802F040FE86
:10220000BDF90E201EA1164809F0C8F81148028831
:102210000088401C0F4B188002EB82004FF6FF72C3
:1022200002EA80010E4A0C48008802F029FEBDF93E
:10223000102013A10A4809F0B1F806480288008866
:10224000401C044B188002EB82004FF6FF721BE02B
:1022500020000020260000202800002025346400F3
:10226000980800200000FA431A00002025352E327D
:102270006656000025352E32664100000800002019
:10228000252B36640000000002EA8001FD4AFE486A
:10229000008802F0F5FDBDF91220AFF21C01F948EB
:1022A00009F07CF8F94802880088401CF74B188038
:1022B00002EB82004FF6FF7202EA8001F14AF24817
:1022C000008802F0DDFDBDF91420AFF24C01ED48AD
:1022D00009F064F8ED4802880088401CEB4B188038
:1022E00002EB82004FF6FF7202EA8001E54AE648FF
:1022F000008802F0C5FDBDF91620AFF27C01E1486F
:1023000009F04CF8E14802880088401CDF4B188037
:1023100002EB82004FF6FF7202EA8001D94ADA48E6
:10232000008802F0ADFDBDF91820AFF2AC01D54830
:1023300009F034F8D54802880088401CD34B188037
:1023400002EB82004FF6FF7202EA8001CD4ACE48CE
:10235000008802F095FD10BC5DF814FB0FB410B5B9
:102360002DED028BCA480078C8490880C84880888B
:10237000C54908806FF07F4002F00FFB9DED040A15
:1023800010EE101A08460AF01BFA41EC180B53EC39
:10239000182BC0A1BB4809F001F8BC48028800888E
:1023A000401CBA4B188002EB82004FF6FF7202EA23
:1023B0008001B44AB448008802F062FD9DED050A30
:1023C00010EE101A08460AF0FBF941EC180B53EC1A
:1023D000182BB0A1AB4808F0E1FFAC480288008898
:1023E000401CAA4B188002EB82004FF6FF7202EAF3
:1023F0008001A44AA448008802F042FD9DED060A2F
:1024000010EE101A08460AF0DBF941EC180B53ECF9
:10241000182BA0A19B4808F0C1FF9C4802880088A7
:10242000401C9A4B188002EB82004FF6FF7202EAC2
:102430008001944A9448008802F022FD9DED070A2D
:1024400010EE101A08460AF0BBF941EC180B53ECD9
:10245000182B92A18B4808F0A1FF8C4A1388128890
:10246000521C8A4C228003EB83024FF6FF7303EA6F
:102470008201854A1288143A90B2824A02F000FD25
:102480009DED080A10EE101A08460AF099F941EC81
:10249000180B53EC182B81A17A4808F07FFF2246D5
:1024A00013881288521C228003EB83024FF6FF73BD
:1024B00003EA8201744A1288143A90B2714A02F017
:1024C000DFFC9DF8242077A16E4808F067FF2046C6
:1024D00002880088401C2346188002EB82004FF6D9
:1024E000FF7202EA8001674A6748008802F0C8FC70
:1024F0009DF8250088B9204602880088401C2346A4
:10250000188002EB82004FF6FF7202EA800166A299
:102510005D48008802F0B4FC6CE09DF825000128BD
:1025200011D15A4802880088401C584B188002EB91
:1025300082004FF6FF7202EA80015DA252480088D5
:1025400002F09EFC56E09DF82500022811D14F486C
:1025500002880088401C4D4B188002EB82004FF629
:10256000FF7202EA800154A24748008802F088FC0A
:1025700040E09DF82500032811D1444802880088D6
:10258000401C424B188002EB82004FF6FF7202EAB9
:1025900080014BA23C48008802F072FC2AE09DF8C2
:1025A0002500042811D1394802880088401C374B87
:1025B000188002EB82004FF6FF7202EA800142A20D
:1025C0003148008802F05CFC14E09DF825000528E5
:1025D00010D12E4802880088401C2C4B188002EB3A
:1025E00082004FF6FF7202EA800139A22648008875
:1025F00002F046FCBDEC028B10BC5DF814FB0FB47E
:1026000010B52DED028B82B0334800781F49088049
:10261000314880881C4908809DF8180020B94FF483
:102620007F0002F0BAF903E06FF07F4002F0B5F9E5
:102630009DF81820AFF2DC31124808F0AFFE1348C5
:1026400002880088401C114B188002EB82004FF674
:10265000FF7202EA80010B4A0B48008802F010FC6E
:102660009DF81920AFF20C41064808F097FE074884
:1026700002880088401C054B188002EB82004FF650
:10268000FF722BE098080020280000202600002080
:102690000E000020252B362E31660000252B372E0C
:1026A00032666D00253364004C6F636B20200000A0
:1026B0005265616479200000556E6C6F636B000099
:1026C000466C79696E67000050494441646A0000B5
:1026D000416E6745727200001400002002EA80011A
:1026E000FD4AFE48008802F0CBFB9DF81A20AFF2AD
:1026F0009441F94808F052FEF94802880088401CCD
:10270000F74B188002EB82004FF6FF7202EA80015D
:10271000F14AF248008802F0B3FB9DED070A10EE83
:10272000101A08460AF04CF841EC180B9DF82000EE
:1027300053EC182BEBA10090E74808F02FFEE84A75
:1027400013881288521CE64C228003EB83024FF65A
:10275000FF7303EA8201E14A1288143A90B2DE4A1A
:1027600002F08EFB9DED090A10EE101A08460AF0E1
:1027700027F841EC180B9DF8280053EC182BDCA12E
:102780000090D54808F00AFE224613881288521C91
:10279000228003EB83024FF6FF7303EA8201CF4AE4
:1027A0001288143A90B2CC4A02F06AFB9DED0B0AF3
:1027B00010EE101A08460AF003F841EC180B53EC1F
:1027C000182BCEA1C44808F0E9FD204602880088F5
:1027D000401C2346188002EB82004FF6FF7202EA8B
:1027E0008001BD4ABD48008802F04AFB9DED0C0AFD
:1027F00010EE101A084609F0E3FF41EC180B53ECF9
:10280000182BC0A1B44808F0C9FD204602880088F2
:10281000401C2346188002EB82004FF6FF7202EA4A
:102820008001AD4AAD48008802F02AFB9DF83800CF
:10283000182190FBF1F201FB12049DF83A00009080
:102840009DF839302246B2A1A34808F0A7FDA4485C
:1028500002880088401CA24B188002EB82004FF6D1
:10286000FF7202EA80019C4A9C48008802F008FB43
:1028700002B0BDEC028B10BC5DF814FB10B5044631
:10288000A7480078401CA64908706FF07F4002F00E
:1028900084F82346A2480278AFF67C218E4808F0DF
:1028A0007DFD8D4A1421002002F0EAFA10BD10B51A
:1028B00094B09C4800789C49097888427ED09A4818
:1028C00000789849087001F0ECFF964800780128DC
:1028D00075D196A0FFF7D2FFFF2002F05EF88223A9
:1028E0004FF4F0721946002002F0E2FA83234FF40D
:1028F000F0721946002002F0DBFA84234FF4F072E4
:102900001946002002F0D4FA4FF4B47395228221C4
:10291000104602F0CDFA4FF4B4739622822110468D
:1029200002F0C6FA4FF4B47397228221104602F0E7
:10293000BFFA4FF4B47340F221128221104602F024
:10294000B7FA4FF4B4734FF491728221104602F03B
:10295000AFFA4FF4B47340F223128221104602F012
:10296000A7FA40F20D134FF491721946962002F027
:102970009FFA4FF487734FF491721946962002F034
:1029800097FA40F20F134FF491721946962002F015
:102990008FFA4FF47F4002F000F86CA20021BE20B5
:1029A00002F06EFA6B4800784D490880694840880B
:1029B0004A4908804A480288008801E0FEE3FEE3B5
:1029C000401C474B188002EB82004FF6FF7202EA70
:1029D000800161A24148008802F052FA4048028812
:1029E0000088401C3E4B188002EB82004FF6FF72BD
:1029F00002EA800159A23948008802F041FA3848B9
:102A000002880088401C364B188002EB82004FF68B
:102A1000FF7202EA800152A23048008802F030FAC8
:102A20002F4802880088401C2D4B188002EB820042
:102A30004FF6FF7202EA80014AA22848008802F09D
:102A40001FFA4A48007826490880484840882349A8
:102A50000880234802880088401C214B188002EB24
:102A600082004FF6FF7202EA800141A21B480088F3
:102A700002F006FA1A4802880088401C184B188099
:102A800002EB82004FF6FF7202EA80013BA213487C
:102A9000008802F0F5F9124802880088401C104BAB
:102AA000188002EB82004FF6FF7202EA800136A224
:102AB0000A48008802F0E4F9094802880088401CAE
:102AC000074B188002EB82004FF6FF7202EA80018A
:102AD00030A20248008861E0980800202800002009
:102AE000260000202531302E366625306300000098
:102AF0002531302E366625630000000025352E3145
:102B0000666D000025362E32664B6D2F6800000082
:102B1000253032643A253032643A25303264000080
:102B20002E000020000000200100002057656C638B
:102B30006F6D6520746F20636F6E74726F6C6C655F
:102B4000722073797374656D210000004D4F4E49FA
:102B5000544F520002000020533A000054583A00EB
:102B600052583A004D41583A000000000800002039
:102B7000414343454C5F583A000000004143434500
:102B80004C5F593A00000000414343454C5F5A3ABC
:102B9000000000004759524F5F583A0002F070F9A8
:102BA000FE4802880088401CFC4B188002EB820023
:102BB0004FF6FF7202EA8001F9A2FB48008802F09A
:102BC0005FF9F64802880088401CF44B188002EB3D
:102BD00082004FF6FF7202EA8001F4A2F2480088F8
:102BE00002F04EF9ED4802880088401CEB4B18803B
:102BF00002EB82004FF6FF7202EA8001EDA2EA4882
:102C0000008802F03DF9E54802880088401CE34B4B
:102C1000188002EB82004FF6FF7202EA8001E7A201
:102C2000E148008802F02CF9DC4802880088401C4A
:102C3000DA4B188002EB82004FF6FF7202EA800145
:102C4000E0A2D948008802F01BF9E0480078D34997
:102C50000880DE484088D4490880D048028800882F
:102C6000401CCE4B188002EB82004FF6FF7202EA46
:102C70008001D7A2CC48008802F002F9C748028838
:102C80000088401CC54B188002EB82004FF6FF7293
:102C900002EA8001D0A2C448008802F0F1F8BF48DF
:102CA00002880088401CBD4B188002EB82004FF662
:102CB000FF7202EA8001CAA2BB48008802F0E0F875
:102CC000B64802880088401CB44B188002EB820092
:102CD0004FF6FF7202EA8001C3A2B348008802F0F7
:102CE000CFF8C4480078AD490880C2484088AE4952
:102CF0000880AA4802880088401CA84B188002EB74
:102D000082004FF6FF7202EA8001BBA2A64800884B
:102D100002F0B6F8A14802880088401C9F4B18803A
:102D200002EB82004FF6FF7202EA8001B4A29E48D5
:102D3000008802F0A5F8994802880088401C974B4B
:102D4000188002EB82004FF6FF7202EA8001AEA209
:102D50009548008802F094F8904802880088401C4A
:102D60008E4B188002EB82004FF6FF7202EA800160
:102D7000A7A28D48008802F083F88848028800885E
:102D8000401C864B188002EB82004FF6FF7202EA6D
:102D90008001A1A28448008802F072F87F4802886E
:102DA0000088401C7D4B188002EB82004FF6FF72BA
:102DB00002EA80019AA27C48008802F061F8774814
:102DC00002880088401C754B188002EB82004FF689
:102DD000FF7202EA800194A27348008802F050F862
:102DE000934800786D490880914840886E49088072
:102DF0006A4802880088401C684B188002EB8200F9
:102E00004FF6FF7202EA80018AA26748008802F04A
:102E100037F8624802880088401C604B188002EB3B
:102E200082004FF6FF7202EA800184A25E480088A9
:102E300002F026F883480078584908808148408885
:102E400059490880554802880088401C534B188017
:102E500002EB82004FF6FF7202EA800172A2524832
:102E6000008802F00DF84D4802880088401C4B4B4A
:102E7000188002EB82004FF6FF7202EA800172A214
:102E80004948008801F0FCFF444802880088401C43
:102E9000424B188002EB82004FF6FF7202EA80017B
:102EA0006BA24148008801F0EBFF3C480288008893
:102EB000401C3A4B188002EB82004FF6FF7202EA88
:102EC000800165A23848008801F0DAFF33480288A3
:102ED0000088401C314B188002EB82004FF6FF72D5
:102EE00002EA80015DA23048008801F0C9FF2B484A
:102EF00002880088401C294B188002EB82004FF6A4
:102F0000FF7202EA800156A22748008801F0B8FF4C
:102F1000224802880088401C204B188002EB820067
:102F20004FF6FF7202EA80014FA21F48008801F0AD
:102F3000A7FF1A4802880088401C184B188002EB33
:102F400082004FF6FF7202EA800149A2164800880B
:102F500001F096FF6FF07F4001F01FFD02200F4946
:102F600008804FF4B970104908800C480288008826
:102F7000401C0A4B188002EB82004FF6FF7202EAF7
:102F800080013DA20848008801F07AFF03480288CA
:102F90000088401C014B188072E0000026000020D1
:102FA0004759524F5F593A00280000204759524F65
:102FB0005F5A3A004D41475F583A00004D41475F24
:102FC000593A00004D41475F5A3A00002000002066
:102FD000545F486967683A00545F5961773A000066
:102FE000545F526F6C6C3A00545F50697463683A76
:102FF000000000000E000020526F6C6C3A000000D0
:1030000050697463683A00005961773A0000000023
:10301000416C743A000000005370643A00000000F4
:103020004D6F64653A0000005354413A00000000BF
:103030001A000020564241543A00000043424154D5
:103040003A0000001400002053564E554D3A00003F
:10305000504C4E554D3A00004E533A0045573A00F9
:10306000414C543A0000000053706565643A00001A
:1030700054696D653A000000414343454C3A0000F5
:1030800002EB82004FF6FF7202EA8001FCA2FE48CA
:10309000008801F0F5FEFD4802880088401CFB4BCB
:1030A000188002EB82004FF6FF7202EA8001F8A25C
:1030B000F548008801F0E4FEF44802880088401CCE
:1030C000F24B188002EB82004FF6FF7202EA800199
:1030D000F1A2ED48008801F0D3FE4FF47F0001F02B
:1030E0005CFC0220E94908800A4613881288521CB9
:1030F0000C46228003EB83020A2303EB820291B287
:10310000E14A1288463290B2072202F017F92246AD
:1031100013881288521C228003EB83020A2303EBDC
:10312000820291B2D84A1288463290B2072202F047
:1031300005F9224613881288521C228003EB830271
:103140000A2303EB820291B2CF4A1288463290B230
:10315000072202F0F3F8224613881288521C2280BC
:1031600003EB83020A2303EB820291B2C64A128860
:10317000463290B2072202F0E1F81422C8496846AC
:1031800008F09FFAC64810380FC8FFF738FAC5494B
:10319000D1E90401CDE90001C2480FC8FFF7DEF80C
:1031A000C148008AADF800001222BF490FA808F0FC
:1031B00043FA0FA80FC8FEF7D0FF01E014E111E0B9
:1031C000BA48D0ED010A90ED000AFEF764FF5022E4
:1031D000B749684608F075FAB54810380FC8FEF7C9
:1031E00034FE01E1B34800780228FAD10020A74953
:1031F00008801420A44908806FF07F4001F0CDFBC7
:10320000A24802880088401CA04B188002EB820074
:103210004FF6FF7202EA8001A7A29B48008801F0E6
:103220002FFEA8A200214FF4C87001F029FE032050
:1032300096490880142094490880944802880088A0
:10324000401C924B188002EB82004FF6FF7202EA9C
:1032500080019FA28C48008801F012FE03208B4958
:1032600008800846008800EB80004FF6FF7202EAF3
:1032700080019AA2B42001F003FE8448008800EB8C
:1032800080004FF6FF7202EA800195A24FF487702A
:1032900001F0F6FD7D48008800EB80004FF6FF72DC
:1032A00002EA80018FA24FF4B47001F0E9FD04201E
:1032B000764908800A2074490880FF2001F06DFBE0
:1032C000724802880088401C704B188002EB820014
:1032D0004FF6FF7202EA800183A26B48008801F07A
:1032E000CFFD6A4802880088401C684B188002EBBA
:1032F00082004FF6FF7202EA80017EA262480088D7
:1033000001F0BEFD614802880088401C5F4B1880B8
:1033100002EB82004FF6FF7202EA800179A25A485E
:10332000008801F0ADFD594802880088401C574BC9
:10333000188002EB82004FF6FF7202EA800174A24D
:103340005148008801F09CFD4FF47F0001F025FBFF
:103350004E4802880088401C4C4B188002EB8200CB
:103360004FF6FF7202EA80016CA24748008801F024
:1033700087FD464802880088401C444B188002EBB9
:1033800082004FF6FF7202EA800167A23E48008881
:1033900001F076FD3D4802880088401C3B4B1880B8
:1033A00002EB82004FF6FF7202EA800161A236480A
:1033B000008801F065FD354802880088401C334BC9
:1033C000188002EB82004FF6FF7202EA80015CA2D5
:1033D0002D48008801F054FD5CA0FEF764FC65A058
:1033E000FEF761FCFEF7F2F832480078012800D0C1
:1033F00000BF14B010BD0FB41CB56FF07F4001F0DA
:10340000CCFA6548007821490880634880881E49C5
:1034100008804FF47F000112CDE90010DDED170A9E
:103420009FED5E1A70EEC10AB0EE600A174A13886B
:103430001288521C154C228003EB8302032303EBFA
:10344000820291B2544A5288193290B24FF47F43AB
:103450003C22FEF792FCBDF854205149514807F038
:103460009DFF204602880088401C2346188002EBFE
:1034700082004FF6FF7202EA80014A4A024893E056
:103480004759524F3A000000280000202600002033
:103490004D41473A000000004241523A000000000E
:1034A000C40900209C090020880900203000002069
:1034B0006C0B0020000000205049442041646A75D4
:1034C000737400005265616420504944000000009C
:1034D000506172616D6574657200000050000000FB
:1034E0004900000044000000526F6C6C5F416E6741
:1034F0006C653A0050697463685F416E676C653A49
:10350000000000005961775F416E676C653A00000A
:103510004865696768745F4469733A00526F6C6C00
:103520005F526174653A000050697463685F52616C
:1035300074653A005961775F526174653A00000022
:103540004865696768745F56656C3A0057616974CD
:10355000696E6720546F20526561642044726F6EFB
:1035600065205049442044617461202E2E2E2E2E59
:103570002E0000004C6F6E672050726573732052EE
:1035800069676874205570706572204B45592054E6
:103590006F20526561642E00020000206F12033A12
:1035A0005C22000898080020008801F069FCBDF842
:1035B00056201749174807F0F1FE20460288008878
:1035C000401C2346188002EB82004FF6FF7202EA8D
:1035D0008001104A1048008801F052FCBDF85820C4
:1035E0000B490C4807F0DAFE204602880088401C90
:1035F0002346188002EB82004FF6FF7202EA800138
:10360000044A0548008801F03BFC1CBC5DF814FB33
:103610005C220008980800202800002070B50446AD
:103620000D4629462046FDF779FD70BD0FB438B52B
:1036300000250024AA222146641CFE484254AF22E1
:103640002146641C425403222146641C4254142225
:103650002146641C4254BDF8680000909DF801208A
:103660002146641CF34842549DF800202146641C06
:103670004254BDF86E0000909DF801202146641C64
:10368000EC4842549DF800202046611CCCB2E94928
:103690000A54BDF86C0000909DF801202046611C82
:1036A000CCB2E4490A549DF800202046611CCCB2FB
:1036B000E0490A54BDF86A0000909DF801202046B8
:1036C000611CCCB2DB490A549DF800202046611CE5
:1036D000CCB2D8490A54002005E0D649095C2944F7
:1036E000CDB2411CC8B2A042F7DB2046611CCCB26F
:1036F000D0490D542146CF48FFF790FF38BC5DF804
:1037000014FB0FB4F8B5054600240027AA22214671
:10371000641CC8484254AF222146641C425405F13F
:103720000F00C2B22146641CC24842540022214606
:10373000641C42549DED080ADFEDBF0A20EE200A0A
:10374000BDEEC00A10EE100A00B200909DF80120F4
:103750002146641CB74842549DF800202146641C51
:1037600042549DED090ADFEDB40A20EE200ABDEEB9
:10377000C00A10EE100A00B200909DF80120214608
:10378000641CAC4842549DF800202046611CCCB219
:10379000A8490A549DED0A0ADFEDA70A20EE200A87
:1037A000BDEEC00A10EE100A00B200909DF8012094
:1037B0002046611CCCB29F490A549DF80020204647
:1037C000611CCCB29B490A549DED120ADFED9A0AA6
:1037D00020EE200ABDEEC00A10EE100A00B20090E2
:1037E0009DF801202046611CCCB292490A549DF8F4
:1037F00000202046611CCCB28E490A549DED130A6C
:10380000DFED8D0A20EE200ABDEEC00A10EE100A90
:1038100000B200909DF801202046611CCCB2854981
:103820000A549DF800202046611CCCB281490A54FC
:103830009DED140ADFED800A20EE200ABDEEC00ADD
:1038400010EE100A00B200909DF801202046611C85
:10385000CCB278490A549DF800202046611CCCB2B5
:1038600074490A549DED1C0ADFED730A20EE200A0C
:10387000BDEEC00A10EE100A00B200909DF80120C3
:103880002046611CCCB26B490A549DF800202046AA
:10389000611CCCB267490A549DED1D0ADFED660A32
:1038A00020EE200ABDEEC00A10EE100A00B2009011
:1038B0009DF801202046611CCCB25E490A549DF857
:1038C00000202046611CCCB25A490A549DED1E0AC4
:1038D000DFED590A20EE200ABDEEC00A10EE100AF4
:1038E00000B200909DF801202046611CCCB25149E5
:1038F0000A549DF800202046611CCCB24D490A5460
:10390000201FC870002605E04A48805D3844C7B2D1
:10391000701CC6B2A642F7DB2046611CCCB24549FA
:103920000F54681E45490F5421464248FFF776FE62
:10393000F8BC5DF814FB70B505460026AA203D4989
:103940000870AF204870022088700120C8700846B7
:103950000571002405E03748005D3044C6B2601CA4
:10396000C4B2052CF7DB334846710621FFF756FE3B
:1039700070BD70B505460026AA202E490870AF20FC
:10398000487001208870C87008460571002405E061
:103990002848005D3044C6B2601CC4B2052CF7DB79
:1039A000244846710621FFF739FE70BD00B59DB071
:1039B0002348807901281FD1A120FFF7DAFF214891
:1039C000407D022803D01F48407D032813D10020EA
:1039D0001B4988714FF400511B4805F065FE4FF4F8
:1039E000967003F08BF84FF40051174805F05AFE1B
:1039F00016A0FEF743FFEAE011484079012847D1BD
:103A0000A020FFF7B6FF0F48407D18B10D48407D5C
:103A10000128F0D100200A49487115A0FEF72EFFB9
:103A20004FF40051084805F03FFE4FF4967003F044
:103A300065F827E0280B002000007A4438000020B9
:103A4000D80900209C090020000802405468652025
:103A500044726F6E6520697320554E4C4F434B2165
:103A600020526561647920746F20466C79210000D2
:103A70005468652044726F6E65206973204C4F4313
:103A80004B2100004FF40051FD4805F00BFE9EE075
:103A9000FC480078012831D10020FA490870FA4822
:103AA000407D0328A7D008464078012805D1002092
:103AB00048700120FFF75DFF89E0F2488078012817
:103AC00006D10020EF4988700220FFF752FF7EE008
:103AD000EC48C078012806D10020EA49C8700320CC
:103AE000FFF747FF73E0E748007901286FD1002016
:103AF000E44908710420FFF73CFF68E0E148C07921
:103B0000012806D10020DF49C8710120FFF713FF0B
:103B10005DE0DC48007AC0B10020DA490872282252
:103B2000DA4912A807F0CDFD2822D94908A807F0E4
:103B3000C8FD2022D749684607F0C3FDD54808389C
:103B40000CC80120FFF7DDFD41E0CE48407AC0B14E
:103B50000020CC4948722822CF4912A807F0B1FDB5
:103B60002822CE4908A807F0ACFD2022CC4968469F
:103B700007F0A7FDCA4808380CC80220FFF7C1FDAE
:103B800025E0C048807AC0B10020BE498872282252
:103B9000C44912A807F095FD2822C24908A807F0D9
:103BA00090FD2022C049684607F08BFDBE480838CA
:103BB0000CC80320FFF7A5FD09E05022BB49684669
:103BC00007F07FFDB94810380FC8FFF72FFD1DB073
:103BD00000BD10B50446A078EF282CD1207910281C
:103BE0000BD1B34800786179884203D1B1A0FEF7C8
:103BF0005AF802E0B5A0FEF756F8207911280BD14B
:103C0000AB4840786179884203D1B4A0FEF74BF805
:103C100002E0B8A0FEF747F8207912280BD1A4489B
:103C200080786179884203D1B6A0FEF73CF802E0C3
:103C3000BAA0FEF738F810BD10B52DED028B84B098
:103C40000446A07810287CD12079000200B2617966
:103C5000084300EE100AB8EEC00ADFEDB40A20EE09
:103C6000200A8C48083880ED000AA079000200B2D2
:103C7000E179084300EE100AB8EEC00ADFEDAB0AA6
:103C800020EE200A8348083880ED010A207A0002DD
:103C900000B2617A084300EE100AB8EEC00ADFED08
:103CA000A30A20EE200A7B48083880ED020AA07A99
:103CB000000200B2E17A084300EE100AB8EEC00A32
:103CC000DFED9A0A20EE200A714880ED000A207B81
:103CD000000200B2617B084300EE100AB8EEC00A91
:103CE000DFED920A20EE200A694880ED010AA07BF0
:103CF000000200B2E17B084300EE100AB8EEC00AF1
:103D0000DFED8A0A20EE200A614880ED020A207C5D
:103D1000000200B2617C084300EE100AB8EEC00A4F
:103D2000DFED820A20EE200A584880ED000AA07CD0
:103D3000000200B2E17C084300EE100AB8EEC00AAF
:103D400000E019E0DFED790A20EE200A4F4880ED0F
:103D5000010A207D000200B2617D084300EE100AD6
:103D6000B8EEC00ADFED710A20EE200A474880ED68
:103D7000020AFDF72BFC86E1A07811287ED120797C
:103D8000000200B26179084300EE100AB8EEC00AE2
:103D9000DFED660A20EE200A4148083880ED000A6F
:103DA000A079000200B2E179084300EE100AB8EEF3
:103DB000C00ADFED5E0A20EE200A3948083880ED9F
:103DC000010A207A000200B2617A084300EE100A6C
:103DD000B8EEC00ADFED550A20EE200A3048083858
:103DE00080ED020AA07A000200B2E17A084300EEF8
:103DF000100AB8EEC00ADFED4D0A20EE200A27486F
:103E000080ED000A207B000200B2617B084300EED7
:103E1000100AB8EEC00ADFED450A20EE200A1F485E
:103E200080ED010AA07B000200B2E17B084300EEB6
:103E3000100AB8EEC00ADFED3D0A20EE200A17484E
:103E400080ED020A207C000200B2617C084300EE93
:103E5000100AB8EEC00ADFED350A20EE200A0E483F
:103E600080ED000AA07C000200B2E17C084300EE75
:103E7000100AB8EEC00ADFED2D0A59E070E000002C
:103E800000080240D80900209C090020B00A002048
:103E9000600A0020900A0020380A0020E80900206B
:103EA000180A0020D80A0020080B00206C0B002004
:103EB00038000020504944312055706461746520F9
:103EC0005375636365656421000000005049443107
:103ED0002073756D204572726F7221005049443213
:103EE0002055706461746520537563636565642152
:103EF00000000000504944322073756D20457272F5
:103F00006F722100504944332055706461746520FC
:103F100053756363656564210000000050494433B4
:103F20002073756D204572726F7221006F12833A93
:103F300020EE200AFE4880ED010A207D000200B23A
:103F4000617D084300EE100AB8EEC00A5FED090A71
:103F500020EE200AF64880ED020AFDF737FB92E0DA
:103F6000A0781228FBD12079000200B261790843C1
:103F700000EE100AB8EEC00A5FED140A20EE200A27
:103F8000EC4880ED000AA079000200B2E179084314
:103F900000EE100AB8EEC00A5FED1C0A20EE200AFF
:103FA000E44880ED010A207A000200B2617A0843F9
:103FB00000EE100AB8EEC00A5FED240A20EE200AD7
:103FC000DC4880ED020AA07A000200B2E17A0843E0
:103FD00000EE100AB8EEC00A5FED2C0A20EE200AAF
:103FE000D54880ED000A207B000200B2617B0843C7
:103FF00000EE100AB8EEC00A5FED340A20EE200A87
:10400000CD4880ED010AA07B000200B2E17B0843AD
:1040100000EE100AB8EEC00A5FED3C0A20EE200A5E
:10402000C54880ED020AFDF7D1FAC4A0FDF73BFEBA
:10403000CA4800F0B2FCCA48006890ED000A10EED1
:10404000101A084608F0BCFB41EC180B53EC182B77
:10405000C4A101A807F0A2F9C44A1278D21C02EB4D
:1040600082024FF6FF7303EA8201C14A1278521EA0
:10407000C2EB021202EB4202962303EB420290B221
:1040800001AA00F0FDFE04B0BDEC028B10BD70B5BE
:104090000546A878EE286DD12C796E79012E69D16C
:1040A000012C09D0022C07D0032C05D0042C03D0FE
:1040B000A12C01D0A02C5DD10020AE490870012CAC
:1040C00012D148704FF47F4000F067FC0722322184
:1040D0004FF4DC7001F032F9A7480078012846D18E
:1040E000A6A0FEF7CBFB42E0022C14D10020A14990
:1040F00088704FF47F4000F050FC072246214FF4B7
:10410000DC7001F01BF99C48007801282FD1A4A095
:10411000FEF7B4FB2BE0032C14D100209549C870A6
:104120004FF47F4000F039FC07225A214FF4DC7035
:1041300001F004F990480078012818D1A0A0FEF7FA
:104140009DFB14E0042C12D100208A4908714FF421
:104150007F4000F022FC07226E21880001F0EEF87B
:1041600085480078012802D19CA0FEF787FB01203A
:10417000FCF768FE70BD70B504460D46A0780528B2
:1041800026D16079217940EA012000EE100AB8EECC
:10419000400ADFED970A20EE200A85ED000AE0795B
:1041A000A17940EA012000EE100AB8EE400ADFEDE6
:1041B000900A20EE200A85ED010A6F480078012858
:1041C00006D18C48D0ED010A90ED000AFDF763FF9F
:1041D00070BD7CB504460D46A078022835D16079C3
:1041E000217900EB012000B22880E079A17900EB71
:1041F000012000B26880607A217A00EB012000B2D1
:10420000A880E07AA17A00EB012000B2E880607B10
:10421000217B00EB012000B22881E07BA17B00EB39
:10422000012000B26881607C217C00EB012000B29B
:10423000A881E07CA17C00EB012000B2E881607DD8
:10424000217D00EB012000B228824B480078012834
:1042500008D16949D1E90401CDE9000166480FC8D8
:10426000FEF77CF87CBD30B52DED028B85B00446A1
:104270000D462078AA2859D16078AA2856D1A0786E
:10428000042854D12079287060796870A079A870CA
:10429000E0790006217A40EA0140617A40EA012093
:1042A000A17A084308EE100AB8EE480ADFED530A77
:1042B00080EE201A85ED011AE07A2872207B000634
:1042C000617B40EA0140A17B40EA0120E17B084399
:1042D00008EE100AB8EE480ADFED480A80EE201A10
:1042E00085ED031A207C2874A07C617C40EA0120C3
:1042F00000B200EE100AB8EEC00AF2EE040A80EE38
:10430000201A85ED051A207DE17C40EA012000B2EB
:1043100000EE100AB8EEC00ADFED390A80EE201A6E
:1043200085ED061A607D85F820006BE07EE06FE089
:10433000380A0020000B0020D80A00205265616472
:104340002044726F6E65205049442044617461209E
:1043500046696E69736865642021000000FFFF00F4
:104360004400002025372E33660000004000002066
:1043700041000020D8090020000000204D50553693
:1043800030353020616363656C65726174696F6E8E
:104390002063616C696272617465642100000000D1
:1043A0004D505536303530206779726F73636F70BA
:1043B000652063616C69627261746564210000004C
:1043C0004D50553630353020514D43353838332037
:1043D00063616C6962726174656421004D533536A6
:1043E00031312063616C696272617465642100001F
:1043F0000AD7233C300000209C0900200024744987
:104400000000C842A07D85F82100E07D85F82200EB
:1044100073480078012809D114227249684607F0D0
:1044200050F9704810380FC8FEF7E9F805B0BDEC38
:10443000028B30BD30B587B004460D46A078012808
:1044400053D16079217940EA012000B200EE100AD0
:10445000B8EEC00A5FED1A0A20EE200A85ED000AC8
:10446000E079A17940EA012000B200EE100AB8EE2E
:10447000C00A5FED210A20EE200A85ED010A607A6C
:10448000217A40EA012000B200EE100AB8EEC00A1C
:104490005FED290A20EE200A85ED020AA07A0006C7
:1044A000E17A40EA0140217B40EA0120617B084338
:1044B00000EE100AB8EEC00A5FED330A20EE200AC3
:1044C00085ED030AE07BA17B40EA012000B200EE0B
:1044D000100AB8EEC00A5FED3A0A20EE200A85ED18
:1044E000040A207C2875607C68753D4800780128A6
:1044F0000CD13D48008AADF8000012223A4902A8CA
:1045000007F09AF802A80FC8FDF727FE07B030BDE4
:104510002DE9F04104460D464FF00008002605E065
:10452000A05D404400F0FF08701CC6B2681EB04297
:10453000F6DC601910F8010C404501D0BDE8F081AF
:104540002078AA2802D16078AA2800D0F6E720783F
:10455000AA2843D16078AA2840D1A778102F2BD061
:1045600008DC012F0FD0022F18D0042F10D0052FF8
:1045700032D118E0112F23D0122F25D0EE2F17D0D3
:10458000EF2F29D124E019492046FFF753FF24E0FB
:10459000144910392046FFF766FE1EE012492046F6
:1045A000FFF717FE19E012492046FFF7E4FD14E07B
:1045B0002046FFF76CFD10E02046FFF73DFB0CE0C6
:1045C0002046FFF739FB08E02046FFF735FB04E003
:1045D0002046FFF7FEFA00E000BF00BF00BFADE7D6
:1045E00000000020C4090020880900209C09002048
:1045F000300000204FF0C04108807047F949088022
:10460000704700B502460B462A20FFF7F3FF101251
:10461000FFF7F4FFD0B2FFF7F1FF0120FFF7EEFF45
:10462000DF20FFF7EBFF2B20FFF7E4FF1812FFF767
:10463000E5FFD8B2FFF7E2FF0120FFF7DFFFDF2041
:10464000FFF7DCFF00BD70B505460E461446314647
:104650002846FFF7D6FF2C20FFF7CCFFE148048067
:1046600070BD2DE9F0470446884615460026B14640
:104670002746A5F12000C5B200BF38E0DA4800683F
:104680000068D9490968098905FB016110F801A092
:104690004FF0000925E00AF0010038B1D348008945
:1046A00082B241463846FFF7CEFF06E0CF48808908
:1046B00082B241463846FFF7C6FF4FEA6A0A781CC5
:1046C00087B2381BC84909688988884205D12746BE
:1046D00008F101001FFA80F806E009F101001FFA55
:1046E00080F9B9F1080FD6DB00BF701C86B2BE4856
:1046F00000680089B042C1DCBDE8F08770B50246B1
:10470000012304E003EB830463004C1EE1B20029A3
:10471000F8DCB2FBF3F40A25B4FBF5F605FB164012
:1047200070BD2DE9F0470546894690461E464FF07C
:10473000000A002437E0301B401EC1B24046FFF79C
:10474000DDFF0746BAF1000F1ED1701EA0421BDD2F
:10475000C7B9A648407C50B9A3490968898804FBB9
:10476000015188B230224946FFF77BFF09E09E499C
:104770000968898804FB015188B220224946FFF765
:1047800070FF0EE04FF0010A07F13001CAB29649FE
:104790000968898804FB015188B24946FFF761FF27
:1047A00000BF601CC4B2B442C5DBBDE8F087F0B501
:1047B00004460E460027B5EEC00AF1EE10FA2DDBD6
:1047C0002B2231462046FFF74CFFFCEEC00A10EECC
:1047D000907ADFED870A60EE200AFCEEE00A10EE28
:1047E000900A6421B0FBF1F201FB120504F10A0109
:1047F00088B203233A463146FFF793FF04F12801BC
:1048000088B22E223146FFF72CFF04F1300188B226
:1048100002232A463146FFF784FF32E02D2231463B
:104820002046FFF71EFFF1EE400AFCEEE00A10EE14
:10483000907AF1EE400A9FED6E1A60EE810AFDEE6D
:10484000E00A10EE900A00B2642190FBF1F201FB45
:10485000120085B204F10A0188B203233A463146B8
:10486000FFF75FFF04F1280188B22E223146FFF7DF
:10487000F8FE04F1300188B202232A463146FFF7E0
:1048800050FFF0BD10B504462CB14FF400615948FB
:1048900004F008FF04E04FF40061564804F004FF00
:1048A00010BD10B5002400210846FFF7AAFE2C20F9
:1048B000FFF7A0FE00BF04E04C488089494908800A
:1048C000641CB4F5163FF7D310BD00B50246474847
:1048D0000274007C58BB3620FFF78CFEE820FFF7FF
:1048E0008DFE2A20FFF786FE0020FFF787FE0020BE
:1048F000FFF784FE0120FFF781FEDF20FFF77EFE39
:104900002B20FFF777FE0020FFF778FE0020FFF74F
:1049100075FE0120FFF772FE3F20FFF76FFE4FF498
:10492000F070324948804FF4A07088802EE02F4804
:10493000007C01282AD13620FFF75CFE4820FFF7D3
:104940005DFE2A20FFF756FE0020FFF757FE0020ED
:10495000FFF754FE0120FFF751FE3F20FFF74EFE08
:104960002B20FFF747FE0020FFF748FE0020FFF74F
:1049700045FE0120FFF742FEDF20FFF73FFE4FF428
:10498000A0701A4948804FF4F070888000BD174924
:104990004874704714490860704730B500230021FF
:1049A000002200F47804230A00F47C446109C0F377
:1049B000C40243EA010414430C4DAC6030BD30B571
:1049C00000230021002200F47804230A00F47C4430
:1049D0006109C0F3C40243EA01041443034DEC60CF
:1049E00030BD0000000002603C000020480B0020A9
:1049F0000000C84200000240FE490888704710B518
:104A000004462CB14FF48051FB4804F04BFE04E007
:104A10004FF48051F84804F047FE10BD1CB5012149
:104A2000192005F061F802208DF8040000208DF8AF
:104A3000060003208DF8050001208DF80700802076
:104A400000906946ED4804F0B1FD0C220721EB48C7
:104A500004F037FE4FF4006000906946E74804F028
:104A6000A5FD0C220B21E54804F02BFE2020009030
:104A70006946E24804F09AFD0C220521DF4804F063
:104A800020FE102000906946DC4804F08FFD0C22C7
:104A90000421DA4804F015FE4FF480400090694686
:104AA000D64804F083FD0C220E21D44804F009FE00
:104AB0004FF4004000906946D04804F077FD0C2286
:104AC0000F21CE4804F0FDFD012000906946CB483F
:104AD00004F06CFD0C220021C84804F0F2FD022015
:104AE00000906946C54804F061FD0C220121C348CD
:104AF00004F0E7FD802000906946C14804F056FDAF
:104B00000C220721BE4804F0DCFD4FF480700090B9
:104B10006946BB4804F04AFD0C220821B84804F05D
:104B2000D0FD4FF4007000906946B54804F03EFD9A
:104B30000C220921B24804F0C4FD4FF480600090BB
:104B40006946AF4804F032FD0C220A21AC4804F05B
:104B5000B8FD4FF4006000906946A94804F026FDB6
:104B60000C220B21A64804F0ACFD4FF480500090BD
:104B70006946A34804F01AFD0C221146A04804F02F
:104B8000A0FD4FF40050009069469D4804F00EFDD2
:104B90000C220D219A4804F094FD4FF480400090BF
:104BA0006946974804F002FD0C220E21944804F057
:104BB00088FD4FF4004000906946914804F0F6FCEF
:104BC0000C220F218E4804F07CFD4FF48070009081
:104BD00069468A4804F0EAFC0C220821874804F060
:104BE00070FD4FF4007000906946844804F0DEFCCC
:104BF0000C220921814804F064FD4FF4806000908C
:104C000069467E4804F0D2FC0C220A217B4804F05D
:104C100058FD01208DF8040000208DF806008DF865
:104C2000050001208DF807000003009069467248D6
:104C300004F0BCFC4FF40060009069466E4804F03C
:104C4000B5FC4FF400616C4804F02CFD1CBD10B5A0
:104C5000FFF7E4FE02F0A4FF0020FFF7D0FE78206B
:104C600001F04CFF0120FFF7CAFE782001F046FF5B
:104C7000D320FFF7BFFCFFF7BFFE62490880FFF7B4
:104C8000BBFE60490880FFF7B7FE5E490880084612
:104C900000884FF6FF7101EA00205A490880FFF7AB
:104CA000ABFE5849098808435649088008460088E1
:104CB00049F28841884201D000BFFEE7E020FFF7BB
:104CC00099FC0020FFF79AFC0320FFF797FC0C20CB
:104CD000FFF794FC0920FFF791FC1720FFF78EFCEB
:104CE0000920FFF78BFC3E20FFF788FC8920FFF7A7
:104CF00085FC4920FFF782FC0820FFF77FFC0D2090
:104D0000FFF77CFC0A20FFF779FC1320FFF776FC05
:104D10001520FFF773FC0F20FFF770FCE120FFF771
:104D200069FC0020FFF76AFC1120FFF767FC1520E3
:104D3000FFF764FC0320FFF761FC0F20FFF75EFC28
:104D40000520FFF75BFC2D20FFF758FC3420FFF710
:104D500055FC4120FFF752FC0220FFF74FFC0B20CF
:104D6000FFF74CFC0A20FFF749FC3320FFF746FC15
:104D70003720FFF743FC0F20FFF740FCC020FFF770
:104D800039FC1720FFF73AFC1520FFF737FCC1204C
:104D9000FFF730FC4120FFF731FCC520FFF72AFC6C
:104DA0000020FFF72BFC1220FFF728FC8020FFF7E4
:104DB00025FC3620FFF71EFC4820FFF71FFC3A2099
:104DC000FFF718FC5520FFF719FCB020FFF712FC85
:104DD0000020FFF713FCB120FFF70CFCA020FFF729
:104DE0000DFCB420FFF706FC0220FFF707FCB620FD
:104DF0000AE000000000026000000240000C0240D7
:104E000000100240480B0020FFF7F4FB0220FFF7E0
:104E1000F5FB0220FFF7F2FBE920FFF7EBFB002098
:104E2000FFF7ECFBF720FFF7E5FBA920FFF7E6FB18
:104E30005120FFF7E3FB2C20FFF7E0FB8220FFF778
:104E4000DDFB1120FFF7D6FB782001F057FE29206B
:104E5000FFF7D0FB0020FFF7B2FD6FF07F40FFF7B8
:104E60009CFDFE48FFF796FD0120FFF790FD002016
:104E7000FFF72BFDFFF715FD0120FFF703FD10BD28
:104E800070B505460E4614460AE02278314628469B
:104E9000FFF7E7FBF24800688088284485B2641C6D
:104EA000F0484088A84202DD20780028EDD170BD8E
:104EB0002DE9F04F89B005460E4691469A460027E7
:104EC000B846BB46002008900790069005900490D5
:104ED00000240390029001900090A9EB05000028A7
:104EE00002DDA9EB050001E0A5EB090007B2AAEB82
:104EF0000600002802DDAAEB060001E0A6EB0A008E
:104F00000FFA80F80FFA85FB30B20890A94503DB51
:104F100001200790069003E04FF0FF3007900690C5
:104F2000B24503DB01200590049003E04FF0FF3011
:104F30000590049047450DDB0020079004903C4607
:104F4000384607EBD071491009B20391CDF80880BB
:104F500001970CE00020069005904446404608EB7F
:104F6000D071491009B203910297CDF80480002056
:104F700000902AE0BB4B1B899AB2089B99B21FFA9A
:104F80008BF0FFF760FBDDE90210084400B20390EC
:104F90000398A0420CDB0398001B00B20390079813
:104FA00058440FFA80FB05990898084400B208900D
:104FB000069858440FFA80FB04990898084400B2F8
:104FC00008900098401C00B20090DDE90001884282
:104FD000D0DD09B0BDE8F08FF0B504460D461646A9
:104FE0001F46A01982B22B4629462046FFF760FFD4
:104FF000E81983B2A01982B2E81981B22046FFF7FE
:1050000057FFE81983B2224629462046FFF750FF92
:10501000E9198BB2A1198AB2A11988B22946FFF702
:1050200047FFF0BD2DE9F04706460F469146C9F10E
:10503000000400254FEA4900C0F1020800BF894B77
:105040001B899AB27B1999B2331B98B2FFF7FBFA0E
:10505000844B1B899AB27B1999B2331998B2FFF726
:10506000F2FA804B1B899AB27B1B99B2331998B222
:10507000FFF7E9FA7B4B1B899AB27B1B99B2331B72
:1050800098B2FFF7E0FAC246AA450BDC681C054659
:10509000012101EB40008044EC4203D1A24501DC38
:1050A0004FF0000AA24505DD601C0446012101EB1A
:1050B00040008044002CC2DDBDE8F0872DE9F84FA8
:1050C00006460F4691469B46C9F1000400254FEA6B
:1050D0004900C0F10208DFED641AB0EE610ADFEDAD
:1050E000621AF0EE610ADFED601AB0EE611A01EEAD
:1050F000909AF8EEE11AF0EE610A01EE90BAF8EE3D
:10510000E11AB0EE611AD94573DD00BFC0EE811A15
:10511000B0EE610A01EE905AF8EEE11A81EE802AB3
:10512000FCEEC21A11EE900A384480B24D4900904C
:1051300009898AB2311B88B20099FFF784FA01EE1F
:10514000905AF8EEE11A81EE802AFCEEC21A11EEB6
:10515000900A384480B24349009009898AB23119D3
:1051600088B20099FFF76FFA01EE905AF8EEE11A53
:1051700081EE802AFCEEC21A11EE900A381A80B233
:105180003849009009898AB2311988B20099FFF72D
:105190005AFA01EE905AF8EEE11A81EE802AFCEEFE
:1051A000C21A11EE900A381A80B22E49009009896D
:1051B0008AB2311B88B20099FFF745FAC246AA4568
:1051C0000BDC681C0546012101EB40008044EC42E9
:1051D00003D1A24501DC4FF0000AA24505DD601CA9
:1051E0000446012101EB40008044002C8EDD7EE06E
:1051F000FFE7CBF10005002400BFC1EE201AB0EE9E
:10520000610A01EE904AF8EEE11A81EE802AFCEE86
:10521000C21A11EE900A301A80B20090114800892B
:1052200082B2781981B20098FFF70DFA01EE904A28
:10523000F8EEE11A81EE802AFCEEC21A11EE900A15
:10524000304480B200900748008982B2781981B258
:105250000098FFF7F8F901EE904A07E08C00002073
:105260003C000020480B002000000000F8EEE11A8E
:1052700081EE802AFCEEC21A11EE900A304480B210
:105280000090FE48008982B2781B81B20098FFF737
:10529000DAF901EE904AF8EEE11A81EE802AFCEE8E
:1052A000C21A11EE900A301A80B20090F3480089B9
:1052B00082B2781B81B20098FFF7C5F9C246A245B9
:1052C0000BDC601C044600EB4000401C8044E542BF
:1052D00003D1AA4501DC4FF0000AAA4505DD681C90
:1052E000054600EB4000401C8044002D85DDBDE8F4
:1052F000F88F2DE9F04381460D4616461F460024DF
:10530000A04600BF16E0281981B24846FFF779F998
:105310002C20FFF76FF94FF0000807E0D74800890D
:10532000D749088008F101001FFA80F8B045F5DB85
:10533000601C84B2BC42E6DBBDE8F0832DE9F04797
:1053400006460F4690460320A0EB48090024454638
:1053500064E04DB3A7EB050C4FF0020A0AFB05CC45
:105360001FFA8CF3A6EB040C1FFA8CF2A7EB050CCA
:105370001FFA8CF1A6EB040C1FFA8CF0FFF798FDD6
:10538000A7EB050C0AFB05CC1FFA8CF306EB040C0B
:105390001FFA8CF2A7EB050C1FFA8CF106EB040C3C
:1053A0001FFA8CF0FFF784FD4CB3A7EB040C4FF011
:1053B000020A0AFB04CC1FFA8CF3A6EB050C1FFAB9
:1053C0008CF2A7EB040C1FFA8CF1A6EB050C1FFA6C
:1053D0008CF0FFF76DFDA7EB040C0AFB04CC1FFA61
:1053E0008CF306EB050C1FFA8CF2A7EB040C1FFAEA
:1053F0008CF106EB050C1FFA8CF0FFF759FDB9F1A3
:10540000000F04DA062000EB8400814405E0601BF5
:105410000A2101EB800081446D1E641CAC4298D9C6
:10542000424639463046FFF7FDFDBDE8F08710B52E
:105430004FF47A749348FFF7ADFA0020FFF7ADFA06
:105440004FF47F00FFF7BBFAFFF72BFA204601F07D
:1054500055FB4FF47F40FFF7B2FAFFF722FA2046E0
:1054600001F04CFBFF20FFF7AAFAFFF71AFA2046DB
:1054700001F044FB8448FFF7A2FAFFF712FA204636
:1054800001F03CFB6FF07F40FFF799FAFFF709FA54
:10549000204601F033FB0020FFF791FAFFF701FAF5
:1054A000204601F02BFB10BD10B564240020FFF74F
:1054B00086FAFFF7F6F96FF07F40FFF76EFA734850
:1054C000FFF768FA72A200210846FFF7D9FC2046D0
:1054D00001F014FB6B48FFF75DFA71A22021002058
:1054E000FFF7CEFC204601F009FB7248FFF752FAA5
:1054F00071A238210020FFF7C3FC204601F0FEFA1C
:105500007248FFF747FA72A24C210020FFF7B8FC5F
:10551000204601F0F3FA7448FFF73CFA73A25C21CD
:105520000020FFF7ADFC204601F0E8FA4FF6FF70CF
:10553000FFF733FA6C48FFF72DFA6CA268210020C0
:10554000FFF79EFC204601F0D9FA6048FFF722FAE7
:105550005FA274210020FFF793FC204601F0CEFAF1
:105560005448FFF717FA54A284210020FFF788FC63
:10557000204601F0C3FA4348FFF70CFA48A29821ED
:105580000020FFF77DFC204601F0B8FA3F48FFF706
:1055900001FA3FA2B0210020FFF772FC204601F083
:1055A000ADFA3A48FFF7F6F95748FFF7F6F909233D
:1055B000564ADC210020FFF7B4F8204601F09EFA9D
:1055C0000020FFF7E4F90923514AFC210020FFF7EE
:1055D000A8F8204601F092FA0120FFF7D8F9092334
:1055E00040F2D2424FF48E710020FFF79AF8204625
:1055F00001F084FA4FF4FA6001F080FA10BD10B5A2
:105600000020FFF7DCF9FFF74CF93048FFF7C2F94B
:10561000FF20FFF7C2F91023822203216E20FFF73B
:1056200068FE3CA203210020FFF72AFC4FF47F40D4
:10563000FFF7B3F91023822219216E20FFF759FEDC
:1056400037A219210020FFF71BFC4FF47F00FFF762
:10565000A4F9102382222F216E20FFF74AFE33A2E5
:105660002F210020FFF70CFC4FF6FF70FFF795F994
:105670001023822245216E205CE00000480B0020B0
:1056800000000260800000202C2C2C007400002000
:1056900021232425262728292A2B2C2D2E303100A2
:1056A00021232425262728292A2B2C2D2E30313260
:1056B000333400008C0000202123242526272829AC
:1056C0002A2B2C2D2E303132333435009800002017
:1056D00021232425262728292A2B2C2D2E30313230
:1056E0003334353637000000A40000202123242560
:1056F000262728292A2B2C2D2E30313233343536CB
:105700003738393A0000000000FFFF0099999919D5
:1057100040E201004C43445F424C5545000000000C
:105720004C43445F475245454E0000004C43445FA4
:1057300052454400FFF7DDFDF9A245210020FFF7A7
:105740009FFB4FF0FF10FFF728F9102382225B2107
:105750006E20FFF7CEFDF5A25B210020FFF790FB46
:10576000F548FFF71AF91023822271216E20FFF706
:10577000C0FDF2A271210020FFF782FBF248FFF783
:105780000CF91023822287216E20FFF7B2FDEFA2D1
:1057900087210020FFF774FBEF48FFF7FEF8102386
:1057A00082229D216E20FFF7A4FDECA29D21002006
:1057B000FFF766FBEC48FFF7F0F810238222B321D5
:1057C0006E20FFF796FDE9A2B3210020FFF758FBFA
:1057D000E948FFF7E2F810238222C9216E20FFF783
:1057E00088FDE6A2C9210020FFF74AFBDE487F3092
:1057F000FFF7D3F810238222DF216E20FFF779FD17
:10580000E1A2DF210020FFF73BFBDB487F30FFF701
:10581000C4F810238222F5216E20FFF76AFDDDA275
:10582000F5210020FFF72CFBC3488030FFF7B5F8C7
:105830001023822240F20B116E20FFF75AFDD9A2ED
:1058400040F20B110020FFF71BFBDA48FFF7A5F829
:105850001023822240F221116E20FFF74AFDD6A2CA
:1058600040F221110020FFF70BFB4FF4FA6001F02A
:1058700045F910BD10B50020FFF7A1F8FFF711F8AA
:10588000D048FFF787F80020FFF787F8BA487F3045
:10589000FFF795F8CCA200210846FFF7F1FAA648D9
:1058A000FFF78DF8C8A228210020FFF7E9FA4FF68C
:1058B000FF70FFF784F8C4A250210020FFF7E0FA40
:1058C00000240DE04FF47F01A1EB0440FFF765F8E1
:1058D000BE23224696212046FFF7EAFA601C84B2D6
:1058E000F02CEFDB00240DE04FF47F41A1EB04200E
:1058F000FFF753F8F0232246C8212046FFF7D8FAD5
:10590000601C84B2F02CEFDB00240CE0C4F1FF003B
:10591000FFF743F84FF491732246FA212046FFF730
:10592000C7FA601C84B2F02CF0DB4FF4FA6001F08F
:10593000E5F810BD10B550240020FFF740F8FEF741
:10594000B0FF4FF47F00FFF728F80A23F022194632
:105950000020FFF7ADFA204601F0D0F81423F02222
:1059600019460020FFF7A4FA204601F0C7F81E23CD
:10597000F02219460020FFF79BFA204601F0BEF8FE
:105980002823F02219460020FFF792FA204601F062
:10599000B5F86948FFF701F89623F0225521052054
:1059A000FFF71AFB204601F0A9F87823BE226421F4
:1059B0001E20FFF711FB204601F0A0F85A238C228D
:1059C00073213720FFF708FB204601F097F83C23AE
:1059D0005A2287215020FFF7FFFA204601F08EF867
:1059E00061487F30FEF7D9FF6422AA217820FFF7B3
:1059F00019FB204601F082F85022AA217820FFF7F7
:105A000011FB204601F07AF83C22AA217820FFF70A
:105A100009FB204601F072F82822AA217820FFF71E
:105A200001FB204601F06AF848F28000FEF7B5FF5E
:105A300040F21D13F02219460020FFF739FA2046E4
:105A400001F05CF840F22713F02219460020FFF71E
:105A50002FFA204601F052F840F23113F022194695
:105A60000020FFF725FA204601F048F840F23B13EA
:105A7000F02219460020FFF71BFA204601F03EF8FD
:105A80004FF47A7001F03AF80020FEF798FFFEF725
:105A900008FF4FF47F00FEF780FF3C2250211046A4
:105AA000FFF74CFC4FF47F40FEF777FF3C2250217C
:105AB0007820FFF743FCFF20FEF76FFF3C225021C8
:105AC000A020FFF73BFC2448FEF767FF32236E223D
:105AD000FA217820FFF7F2FA204601F00FF8282388
